:100000000C942A000C943F000C943F000C943F0089
:100010000C943F000C943F000C943F000C943F0064
:100020000C943F000C943F000C943F000C943F0054
:100030000C943F000C943F000C943F000C943F0044
:100040000C943F000C943F000C943F000C943F0034
:100050000C943F0011241FBECFE5D8E0DEBFCDBF1A
:1000600010E0A0E6B0E0EAEBF0E002C005900D92EF
:10007000A037B107D9F70E9441000C945B000C94A3
:1000800000008FEF8ABB80E001C080E0E82FF0E045
:10009000EE0FFF1FE05AFF4F90819BBB2FEF32E521
:1000A00097E0215030409040E1F700C000008F5FA2
:0A00B000883061F7EACFF894FFCF23
:1000BA000100020004000800100020004000800037
:00000001FF
