S0150000746573745769746841746D656C2E73726563C0
S11300000C942A000C9434000C9434000C943400A6
S11300100C9434000C9434000C9434000C9434008C
S11300200C9434000C9434000C9434000C9434007C
S11300300C9434000C9434000C9434000C9434006C
S11300400C9434000C9434000C9434000C9434005C
S11300500C94340011241FBECFE5D8E0DEBFCDBF21
S11300600E9436000C9448000C9400008FEF8ABB69
S113007081E001C081E08BBB2FEF32E597E0215096
S113008030409040E1F700C00000880F99F3F3CFAF
S1070090F894FFCF0E
S9030000FC
